:080000000C9491010C94000026
:100008000C9400000C9400000C9400000C94000068
:100018000C9400000C9400000C9400000C94000058
:100028000C9400000C9400000C9400000C94000048
:100038000C9455020C9400000C9400000C940000E1
:100048000C9400000C9400000C9400000C94000028
:100058000C9400000C9400000C9400000C94000018
:100068000C9400000C9400000C9400000C94000008
:100078000C9400000C9400000C9400000C940000F8
:100088000C94000005072060000000000000005FDD
:1000980000000007000700147F147F14242A7F2A19
:1000A80012231308646236495522500005030000E4
:1000B800001C2241000041221C00082A1C2A0808B2
:1000C800083E0808005030000008080808080030FA
:1000D80030000020100804023E5149453E00427F8E
:1000E800400042615149462141454B311814127F65
:1000F8001027454545393C4A4949300171090503EE
:100108003649494936064949291E00363600000055
:100118005636000000081422411414141414412205
:100128001408000201510906324979413E7E111135
:10013800117E7F494949363E414141227F41412252
:100148001C7F494949417F090901013E414151321A
:100158007F0808087F00417F41002040413F017F20
:10016800081422417F404040407F0204027F7F0400
:1001780008107F3E4141413E7F090909063E415131
:10018800215E7F09192946464949493101017F0104
:10019800013F4040403F1F2040201F7F2018207F04
:1001A8006314081463030478040361514945430048
:1001B800007F4141020408102041417F00000402F1
:1001C8000102044040404040000102040020545411
:1001D80054787F4844443838444444203844444898
:1001E8007F3854545418087E090102081454543CAA
:1001F8007F0804047800447D40002040443D00000E
:100208007F10284400417F40007C041804787C0853
:1002180004047838444444387C141414080814142A
:10022800187C7C080404084854545420043F444073
:10023800203C4040207C1C2040201C3C4030403C5E
:1002480044281028440C5050503C4464544C4400FA
:100258000836410000007F00000041360800020116
:100268000204027F4141417F000103070F1F3F7FC6
:10027800FF000000FFFF6400000000000100020012
:100288000300040005000600070008000900FFFF3E
:10029800FFFFFFFFFFFF414E204E484945553F00F5
:1002A800425431202D20434F00425432202D204B00
:1002B8004F0053554343455353210048454E20476B
:1002C800494F00425431000080C001002D4E414E7C
:1002D80000494E460000090004007A0211004E054C
:1002E80084020800720596020A0000059E020900B1
:1002F8000A05A80209001305B10209001C05BA0283
:1003080008002505C30204002D05CB02020075076D
:10031800D00201007C07D2020000F894EE27ECBB63
:10032800F1E0F5BFE5BFE0936C008DE0A2E0BB27EC
:10033800ED938A95E9F780E090E1A0E0B1E0ED93D4
:100348000197E9F7EEEDF2E085919591009761F05C
:10035800A591B59105901590BF01F00105900D92FA
:100368000197E1F7FB01F0CF8BBFEFEFEDBFE0E1C5
:10037800EEBFC0E0D5E00C94A903EAEEE09361007B
:100388008C9A8D9A8F9ABC9AC29AC39A979AA79A6E
:1003980008950E94C80B30E03330A0F5303019F4CE
:1003A800EDEFE0936200313019F4E7EFE09362007B
:1003B800323019F4EFEDE093620000E0033000F50D
:1003C800003041F4E0B1E4701E2F143019F00E949F
:1003D800440AB7C1013041F4E0B1E0711E2F103179
:1003E80019F00E94440AADC1023041F4E0B1E17055
:1003F8001E2F113019F00E94440AA3C10F5FDECFEF
:100408003F5FCACFBADFEFEFFFEF9BC1BA93AA9362
:100418002897ECE8F0E0E883F983EE81EC7FEE833F
:10042800EA85E770EE0FEE0F0E2EEE81E37EE029EF
:10043800EE83E885EF770E2EEF81E078E029EF83F1
:10044800DE010E9493040C940808A0E10E9411099F
:100458000E94E4080895BA93AA93A881EFEFEA1BD3
:10046800E1BF22960895A8E701C0A0E0B0E0F3DF5D
:100478000895E0E0E0BFE4E7E3BFE0E0E2BFA0E02A
:10048800B0E0E9DFE0E0EFBDE1E0EEBDECEFEDBDAF
:10049800E0EEECBDE4E0E7BFE0E0E0937D007894B7
:1004A80008950A921A92FA926A937A938A939A937F
:1004B800AA93BA93EA93FA93EFB7EA93ECEFEDBDF8
:1004C800E0EEECBDF30131963F01E8ECF0E06E168A
:1004D8007F0614F0662477246814790414F4AF9A1C
:1004E80001C0AF98E1B7EF3F11F0B29B01C004C063
:1004F800E1E0E0937A05B9DFE0917A05E030B1F008
:10050800E0E2FEE4E415F50511F444245524042C36
:10051800052811F49498959AE0E1F7E2E415F505B9
:1005280011F49598949AF20131962F01E991EFBF51
:10053800F991E991B991A9919991899179916991E3
:10054800F990199009901895EBE0F0E0FA93EA9386
:10055800EAE0F0E0FA93EA93ADE0B0E00E946009C7
:10056800AB2D0E94550AE0936A05F0936B05AB2DFD
:100578000E945B0AE0936C05F0936D05AA2D0E941A
:10058800550AE0936E05F0936F05AA2D0E945B0A49
:10059800E0937005F0937105E0E0EA93A0E00E9413
:1005A800D308A0916A05A05D0E94F208A0916C058D
:1005B8000E94610AA0916E05A05D0E94F208A091B8
:1005C80070050E94610AAD2D0E94550AE05DAE2FAC
:1005D8000E94F208AD2D0E945B0AE05DAE2F0E94DA
:1005E800F20808950E94C80B00E010E040D2E4E051
:1005F800F0E0E017F10709F46CC0CBDE9F01EFEFE4
:10060800FFEFE217F30709F45FC0002400160106A4
:1006180041F4332322F02330E0E03E070CF001C020
:1006280001C001C02CC0E1E0F0E0E017F10799F447
:10063800A0917205B0917305129731F4332322F01B
:100648002430E0E03E0734F0A0917205B0917305C4
:10065800129709F001C001C012C0E2E0F0E0E01713
:10066800F10741F4332322F02630E0E03E070CF096
:1006780001C005C0E3E0F0E0E017F10749F4F80134
:10068800A2E7B5E0EE0FFF1FEA0FFB1F20833183BF
:10069800F801A2E7B5E0EE0FFF1FAE0FBF1F0E94E3
:1006A800A10BFA93EA93A0E6B5E00E948809A7E0B7
:1006B8000A02F001E75EEA93E4E1EA93A0E6B5E016
:1006C8000E9480080F5F1F4FAAEFB0E00E94470BFF
:1006D8008ECFCDD1EFE0EA93EAE0EA93A0E0B5E06F
:1006E8000E948008EFE0EA93E4E1EA93AAE0B5E02B
:1006F8000E948008EFE0EA93EEE1EA93A3E1B5E017
:100708000E948008EFEFFFEFE017F10761F0B29960
:1007180004C0E1E0CE2E0FEF1FEFB39903C0CC2445
:100728000FEF1FEFEFCFA3D1EFE0EA93E4E1EA93F5
:10073800ACE1B5E00E948008A8EEB3E00E94470B48
:1007480096D10E94CF0B24960895E4E0F0E0FA9346
:10075800EA93A2E4B0E05ADE78DE0FDE8ADE0E9479
:10076800F60AE0E0EA93EA93A0E00E94410978944F
:10077800EBDEE9E1EA93EFE0EA93A5E2B5E00E9457
:100788008008EEE1EA93E9E1EA93ADE2B5E00E9480
:100798008008B29B27DFE0917205F0917305A09164
:1007A8006A05B0916B05EA17FB0719F5E091740526
:1007B800F0917505A0916C05B0916D05EA17FB07DE
:1007C800C1F4E0917605F0917705A0916E05B0919E
:1007D8006F05EA17FB0769F4E0917805F091790550
:1007E800A0917005B0917105EA17FB0711F4DD209F
:1007F80009F011C038DEEFE0F0E04F01CC2019F02D
:10080800A0EDB7E002C0A8EEB3E00E94470B2DDED2
:10081800EAE0F0E04F01A4E6B0E00E94470BA8CF61
:10082800FFCF0895AA931A93E0916500EF7EE093B5
:10083800650018E0F6DFE981E07821F0E0916500D5
:10084800E26003C0E0916500ED7FE0936500E98117
:10085800EE0FE983E6DFE0916500E460E093650070
:10086800E0DFE0916500EB7FE0936500115011F740
:10087800E0916500E061E093650018810C94CF0970
:10088800AA93E0916500EE7FE0936500A881CADF36
:100898000C943F09AA93E0916500E160E09365003C
:1008A800A881C0DF0C943F09AA931A93E981E695C1
:1008B800E695E6951E2FE4E5E19FF001DF01EA8168
:1008C800F0E0EA0FFB1FE0937B05F0937C05E12F36
:1008D80018810C94160AAA93E981E068AE2FD0DF3C
:1008E800E981EA93A981E0DFE064AE2FC9DF0C94C7
:1008F800CF09AA93E981EA93A981EDDFE0917B050D
:10090800F0917C05E358FA4FE0810C94CF09AA9343
:100918000E94670AA881A083BDDF0C943F09BA939F
:10092800AA930E94C80BE0916400E0610E94720AD9
:10093800E061E0936500E0916400E4600E94720A5F
:10094800EB7FE0936500E0916400E260E09364006F
:10095800E0916400E160E0936400E0916400E86085
:100968000E94720AE77FE0936500AAE0B0E00E9467
:10097800470BE0916500E860E0936500EC81FD813C
:10098800309721F1E681E3701E2FEC81FD81E6812D
:10099800E695E695E7700E2FEC81FD81E781EF770C
:1009A8003E2FAC81BD810E94A10BE0933505F093E9
:1009B800360512960E94A10BE0934A05F0934B0569
:1009C800AC81BD8114960E94A10B0DC010E003E01C
:1009D80032E3E0E0F0E0E0933505F0933605E0938C
:1009E8004A05F0934B05E0934C05F0934D05A1E2C1
:1009F80047DFE12FE460AE2F43DFE02FE061AE2F49
:100A08003FDFE32FE068AE2F3BDFA0E239DFA1E054
:100A180023D0E1E0E0933105E0E0E0933205E1E046
:100A2800E0933705E0933805E0933905EFEFE0935D
:100A38003A05E1E0E0934105E2E4F5E0FA93EA9350
:100A4800EFEFEA93A8E0B0E00E94B60910D0E1E029
:100A58000E94CF0B0C948609AA93E881E03011F02C
:100A6800ECE001C0E8E0AE2F0BDF0C943F090E94D8
:100A7800C80B30E0E0913205E03009F03FEFE0E0EC
:100A8800EA93A0E028DF08EF11E0F80101501040D8
:100A9800309719F0A32F3BDFF8CFE0E0EA93A0E00E
:100AA80040D30E94CF0B0C94350AAA931A93ED8178
:100AB800EA93AD811EDF1E2FE981E73011F0E8309F
:100AC80039F4EB81EA93AA810E94D109EB8308C02B
:100AD800E33021F4EB81E095EB8302C0E03021F4B0
:100AE800EA81E0951E2302C0E23029F4EA81AB8155
:100AF800EA231E2B0EC0E13029F4EA81AB81EA23F8
:100B08001E2707C0E43029F4EA81E095AB81EA2B7F
:100B18001E23A12FFCDE18810C948609AA93239723
:100B28000E94C60BA889A43548F4AF85A03330F4D9
:100B3800AE85A03019F0AD85A03009F4CCC1EE85A2
:100B4800E887A889BB27EE85F0E0AE0FBF1FA53563
:100B5800E0E0BE0720F0A889E4E5EA1BEE872D85D2
:100B6800AF85BB27ED85F0E0AE0FBF1FD19720F012
:100B7800AF85E0E3EA1BED87A985A63009F05BC0E5
:100B8800EC85E13009F4A7C1E33039F4E0914C0574
:100B9800F0914D05309709F49EC10885ED85E695DD
:100BA800E695E6953E2FE22FE77019F4AD852A17F2
:100BB800E9F0A02FBB27E32FF0E00E94650BAA8580
:100BC800BB850E94770A269526952695532F5F9315
:100BD8005F5FE22FAF91EA1748F0102FE12F115015
:100BE800E03019F00E947C0AF9CFF1CFAE850A17E0
:100BF80011F1EE85AA85BB85F0E00E94770AED85A4
:100C0800E77009F03F5F20E02F932F5FE32FAF914C
:100C1800AE1788F41E851F931F5FE02FAF91AE17A4
:100C280018F40E947C0AF7CFEE85AE81BF81F0E010
:100C38000E94770AE9CFEF85E7703E2FED85E03017
:100C480009F449C1EA85FB85EE83FF8310E0088932
:100C5800303009F063C0AD85A83008F45AC0E98582
:100C6800E03011F0E33009F402C0E73009F402C0C3
:100C7800E83009F402C0E93009F402C0EA3021F48E
:100C88000A93A88928DE04C0E63011F40E94890A74
:100C98001F931F5FEE85AF91AE17A0F5A985A6300B
:100CA80051F40E948D0AFA93EA930E94670AA08180
:100CB8000E94180A26C0E985E93011F450E00EC0F8
:100CC800EA3011F45FEF0AC00E948D0A0E94960A6A
:100CD8005E2FE985E73011F0E83021F40E949C0A84
:100CE8005E2F06C0E33011F4509502C0E03019F4CD
:100CF800A52FD0DD06C00E94A00AEFEFEA93AD85CC
:100D0800D4DEC6CFEF85E85FEF87ED85E850ED8745
:100D1800D9C05D8520E0E0E0ED877EC0E32FAD859A
:100D2800AE0FA93020F42D85E0E0ED8703C0E8E0A0
:100D3800E31B2E2F3A93A22F0E94C6094E2FE98556
:100D4800E63011F50E94890A1F931F5FEE85AF9167
:100D5800AE17C8F40E94670AE081E423AE2FE32FA0
:100D68000E945D0B0E94A60AE32FA42F0E945D0B30
:100D7800E095E1215E2B0E948D0AFA93EA93A52F54
:100D88000E94180AE1CF2CC0E93011F450E003C0EA
:100D9800EA30A9F45FEF0E949C0AAE2FE32F0E946D
:100DA800550B5E2F1F931F5FEE85AF91AE1730F482
:100DB8000E94A00A4A93A0E078DEF4CF11C01F93E6
:100DC8001F5FEE85AF91AE1758F40E94B10AAE2F9F
:100DD800E32F0E94550BEA934A93AD8566DEEFCF69
:100DE800ED85E03009F477C0AD85A83028F4ED85AD
:100DF800E21B5E2FE0E003C0532FED85E850ED873E
:100E080010E0EF85E85FEF87E8E0E31B2E2F088905
:100E1800EA85FB85EE83FF83E52FF0E0E059FD4F7F
:100E28004491E985E63011F50E94890A1F931F5FF6
:100E3800EE85AF91AE17C8F40E94670AE081E423FB
:100E4800AE2FE22F0E94550B0E94A60AE22FA42F74
:100E58000E94550BE095E1215E2B0E948D0AFA93C2
:100E6800EA93A52F0E94180AE1CF2CC0E93011F4AB
:100E780050E003C0EA30A9F45FEF0E949C0AAE2F4D
:100E8800E22F0E945D0B5E2F1F931F5FEE85AF91CF
:100E9800AE1730F40E94A00A4A93A0E006DEF4CF11
:100EA80011C01F931F5FEE85AF91AE1758F40E94D3
:100EB800B10AAE2FE22F0E945D0BEA934A93AD85EB
:100EC800F4DDEFCFE885AA85BB85F0E0EA0FFB1FCC
:100ED800EA87FB87B3CE0E94CD0B619608950E94E6
:100EE800BE0A24F0E0E0F0E00C94CF09A881B981B3
:100EF800A435E0E0BE0724F0E3E5F0E00C94CF0968
:100F0800E881F9810C94CF090E94BE0A24F0E0E040
:100F1800F0E00C94CF09A881B981D09724F0EFE2D2
:100F2800F0E00C94CF09E881F9810C94CF09BA93C9
:100F3800AA9323970E94C50A8F01002E012A19F44B
:100F4800E0E0F0E05FC00E94CC0A0F820E94CC0A69
:100F58000E820E94CC0A0886EB85A885EA1718F449
:100F6800E0E0F0E04FC0F8010F5F1F4F5491A885F3
:100F7800BB27EE27A50FBE1FEB85F0E0EA17FB079E
:100F880018F0E0E0F0E03EC0EE81E695E695E695E3
:100F98004E2FEE81E77009F04F5FEF81E030A1F04E
:100FA800A985BA85EC93A885EB85EA1BF0E0DF01FB
:100FB800EF81F0E00E94650BDF01E42FF0E00E9472
:100FC800650BE00FF11F1EC09801E52FF0E00E0F32
:100FD8001F1FA885AF5FA887A150EB85AE1760F4E7
:100FE800F9012F5F3F4FA491B0E0E42FF0E00E9499
:100FF800650B0E0F1F1FEDCFF901E491A985BA8586
:10100800EC93F8010E94CD0B2C960895E0E0E09354
:101018003305A0913405BB270E94D10AF0E0AE0F3A
:10102800BF1FE0913805F0E0AE0FBF1F6DDFE09302
:1010380034050895AA9321970E94C50A309709F4A8
:1010480055C0AF81AA3009F44FC0EF81EA93DE01A1
:1010580017966DDFAF01309709F44AC0E091370564
:10106800AE81EA0F3E2FA0913305BB27F0E0EA0FCF
:10107800FB1F8F010535E0E01E0718F0032F11272D
:10108800C5DFE0913305EA93E0913405EA93E885FA
:10109800EA930E94D10AEA93E1E0EA935A934A93C9
:1010A800A7E03CDDE0913305AE81EA0FEA93E091D9
:1010B8003405EA93E0913705EA930E94D10A0E9429
:1010C800D80AE0913305EA93A09134050E94D10A29
:1010D800EA0FEA933A93E09138050E94D80AE4E5CA
:1010E800F0E0E017F10711F491DF02C00093330537
:1010F8000E94CD0B28960895BA93AA931A93EC816F
:10110800EA93AC810ED0A981BA81ED91A983BA8303
:101118001E2FE03019F0A12F8DDFF5CF18810C9428
:10112800C409AA93A981BB27DADEE0933305A88115
:10113800BB27EADEE09334050C94CF09AA93E88133
:10114800E07111F0DB9A01C0DB98E881E07211F0E0
:10115800DC9A01C0DC98E881E07411F0DD9A01C0E6
:10116800DD98E881E07811F0DE9A01C0DE988DE024
:101178008A95F1F7DA9A8DE08A95F1F7DA988DE099
:101188008A95F1F778C0AA93A881D8DFE881E2951B
:10119800E883A881D3DF85E88A95F1F76CC0AA9324
:1011A800E881F0E0EB58F84FE081A981AE0FEBDF62
:1011B800E981E0937907E881E0937A070C94CF09F5
:1011C800A2E00E94E20AACE0DEDFA1E00E94E20AAF
:1011D800E0E0E0937A07E09379070895AA93A8815D
:1011E800AA3031F0E0917B07A0917907AE1758F04B
:1011F800E0E0EA93A0917A07AF5FA0937A07CFDF88
:10120800A881AA30C1F1E0917907EF5FE0937907EF
:10121800D89AA881B8DFD8982EC0AA93D39AD49A1E
:10122800D59AD69AD29AD09AD19ADA98D898D99843
:10123800E881E0937B07E058E0937707E881E05482
:10124800E0937807A4E1B0E00E94470B0E94E80A07
:101258000E94E80A0E94E80AA0E270DF88EC90E0A9
:101268000197F1F7A8E28FDFA4E08DDFA5E88BDF17
:10127800A6E089DFA5DF21960895AA93EA81E370A5
:10128800EA83E981E03019F0EA81E061EA83E881E4
:10129800E03019F0EA81E068EA830E94FB0AA0EDD9
:1012A8000E942F0BA7E00E942F0BAA810E942F0BF0
:1012B8000E940A0B0C94160ABA93AA930E94FB0A7E
:1012C800A0ED0E942F0BA0E00E942F0B0E940A0B9A
:1012D8000E94FB0AA1ED0E942F0B0E94F00AA88130
:1012E800B981EC930E94F00AAA81BB81EC93A0E03B
:1012F8000E94140BAE2F0E94370AAC81BD81EC937B
:101308000E940A0B26960895BA93AA93A991B991B7
:10131800E991F99130962AF4E095F09531966DE2CD
:101328006D93E89480E197E20DD088EE93E00AD0BF
:1013380084E6992707D08AE005D06E2F10D066275B
:101348006C9308956627E817F90720F06395E81B62
:10135800F90BC9F7662311F416F008956894605DD7
:101368006D930895BA93AA93B981A881109631F024
:10137800FC81EB816A8161931197E9F7EB81FC812C
:1013880025960895AA93E881F0E0E059FD4FA491CD
:10139800E9810E94550B22960895AA931A93E98130
:1013A800E73011F0EA3019F41091310509C0E9303D
:1013B80019F41091320504C0E830A1F410914105E8
:1013C800E0913205E03049F0103019F0EFEF188164
:1013D80029C0EA81E095188125C0103019F4E0E0B1
:1013E800188120C0EA8118811DC0BA93AA93EA81A6
:1013F800E13021F4E881F981E49114C0E23029F464
:10140800A881B9810E94A50B0DC0E33041F4A881E1
:10141800B981E0914A05F0914B05099503C0A8816F
:10142800B981EC9123960895AA93EB81E03029F4D1
:10143800E881A981BA81EC9314C0E23031F4E881E3
:10144800A981BA810E94B10B0CC0E33051F4E98143
:10145800FA81FA93EA93AA81E0914C05F0914D053F
:10146800099524960895AA93E881E295EF70AE2F26
:10147800AA0FAA0FEA0FEE0FA991AF70EA0F08950D
:101488000E94C101A6E00A9FF001E25BFA4FDF016A
:10149800E32FF0E0EE0FFF1FAE0FBF1F0E94A10B5E
:1014A8000895B0E0EAE0F0E00E94800B0895BB27C1
:1014B800EAE0F0E00E94850B0895A05D0E94F20822
:1014C800AAE30C94F208ABE7B5E0ED91FD913196F3
:1014D800FE93EE933197E358FA4F0895E093640032
:1014E800E09165000895EA0FFB1FEE83FF830895DE
:1014F800EC85EA93EF81F8853196EF83F887319789
:10150800FA93EA93A0E00C94180A0A93A8890C9419
:101518005804EC85EA93EF81F8853196EF83F887D4
:101528003197089566277727DF01CB010C94F909D5
:101538005A93AA850C94D1090A930395E889EA93EA
:101548005A9308955E2FEC85EA93AF81B885882772
:1015580099270E94F9091E2E08950A930395E88990
:10156800EA93EE85EA93E985FA853196E987FA8761
:101578003197D8CFBA93AA93A881B9810E94C20B98
:1015880008950E94C60BE0913505F091360508953F
:10159800F8010F5F1F4F04900895E0913505F09111
:1015A80036053196E4910895EA93E0E0EA93E0E0A5
:1015B800F0E0FA93EA93A9E00C9492050E94C70818
:1015C800A3E0B0E00C94470BA0E30E94A20888ECCB
:1015D80090E00197F1F70895A1E00E94140BAE2F57
:1015E8000C94370A1E981F98169A179815C01798C2
:1015F8001698EE2700000F9B08950E9B089504D0BF
:10160800179A02D0169AE1E06DE007C0179A169A69
:1016180003D01698F9DF17986BE16A95F1F70895EA
:1016280078E01698F1DF0E9BFECFEEDF88940F99D5
:101638000894169AF1DFEE1F7A9599F77A2F772397
:1016480011F4179801C0179ADFDF1698E5DF169A8C
:10165800DBDF1798D9CF78E0AA0F10F4179801C0EC
:10166800179ADADF1698D0DF0E9BFECFCDDF169AD9
:101678007A9591F71798C8DF1698CEDFE1E00F99B1
:10168800EE27169AC1CF109639F080ED97E00197B2
:10169800F1F7A8951197C9F70895F195E195F040EC
:1016A8000895EE230E2EEA2F19F0EE0F0A94E9F7AB
:1016B8000895EE230E2EEA2F19F0E6950A94E9F71D
:1016C8000895FA9FF02DEB9FF00DEA9FE02DF10DA4
:1016D80008950024112490E1AA0FBB1F001C111CBF
:1016E8000E1A1F0A18F40E0E1F1E01C0A1609A954B
:1016F80099F7FD01D001089512D0EBDF0EF4CDDF8C
:101708000895E894B7FF04C0A095B0951196689421
:10171800F7FDC3DFDEDFFD010EF4BFDF0895E894B7
:10172800F7FF02C0BADF6894B7FF06C0A095B0956E
:10173800119600F8039400FA0895ED91FC91119721
:101748000895E199FECFFF93FFB7F894AEBBBFBBF6
:10175800E09AEDB3FFBFFF910895E19B02C0A89501
:10176800FCCF9FB7F894AEBBBFBBE09A8DB3E81728
:1017780019F0EDBBE29AE19A9FBF089500240A167A
:101788000B0608955A934A933A932A931A930A9305
:1017980008955D814C813B812A81198108810895D2
:00000001FF
