:020000000C945E
:1000020066010C9400000C9400000C9400000C9407
:1000120000000C9400000C9400000C9400000C945E
:1000220000000C9400000C9400000C9400000C944E
:1000320000000C9400000C9415020C9400000C9427
:1000420000000C9400000C9400000C9400000C942E
:1000520000000C9400000C9400000C9400000C941E
:1000620000000C9400000C9400000C9400000C940E
:1000720000000C9400000C9400000C9400000C94FE
:1000820000000C9400000C940000050720600000A2
:1000920000000000005F00000007000700147F144A
:1000A2007F14242A7F2A12231308646236495522B8
:1000B200500005030000001C2241000041221C00E8
:1000C200082A1C2A0808083E0808005030000008C8
:1000D20008080808003030000020100804023E51D1
:1000E20049453E00427F4000426151494621414517
:1000F2004B311814127F1027454545393C4A49496E
:100102003001710905033649494936064949291E14
:100112000036360000005636000000081422411452
:100122001414141441221408000201510906324920
:1001320079413E7E1111117E7F494949363E414146
:1001420041227F4141221C7F494949417F090901DE
:10015200013E414151327F0808087F00417F410042
:100162002040413F017F081422417F404040407FB0
:100172000204027F7F0408107F3E4141413E7F0915
:100182000909063E4151215E7F091929464649491E
:10019200493101017F01013F4040403F1F20402083
:1001A2001F7F2018207F631408146303047804035C
:1001B200615149454300007F41410204081020413A
:1001C200417F00000402010204404040404000011F
:1001D20002040020545454787F484444383844443C
:1001E2004420384444487F3854545418087E090146
:1001F20002081454543C7F0804047800447D4000F3
:100202002040443D00007F10284400417F40007C94
:10021200041804787C0804047838444444387C1474
:10022200141408081414187C7C0804040848545454
:100232005420043F4440203C4040207C1C2040206D
:100242001C3C4030403C44281028440C5050503C48
:100252004464544C44000836410000007F00000012
:100262004136080002010204027F4141417F000140
:1002720003070F1F3F7FFF0000000000E700E7E8D1
:1002820000000000000000000000000054454D5036
:100292003A0048554D493A0053415920584F4E476C
:1002A200210080C001002D4E414E00494E46000003
:1002B2000A0004007A020A0000059A0202002307DB
:1002C200A40201002907A6020000F894EE27ECBB65
:1002D200F1E0F5BFE5BFE0936C008DE0A2E0BB2743
:1002E200ED938A95E9F780E090E1A0E0B1E0ED932B
:1002F2000197E9F7E2EBF2E085919591009761F0C1
:10030200A591B59105901590BF01F00105900D9250
:100312000197E1F7FB01F0CF8BBFEFEFEDBFE0E11B
:10032200EEBFC0E0D5E00C947D02BA93AA932A975F
:100332008AE0A0E0B0E0E4E8F2E00E94C2090E9494
:10034200B609BF9AC79A80EA8A95F1F7C798A9E1D8
:10035200B0E00E942C09BF98C79A80EA8A95F1F70B
:10036200B79B02C0E0E05CC0B79BFECF80EA8A95F3
:10037200F1F7B79902C0E0E053C0B799FECF00E0B1
:1003820010E00530E0E01E0764F520E030E02830A0
:10039200E0E03E071CF5B79BFECF85E88A95F1F7B2
:1003A200B79B19C0F801DE011496EE0FFF1FEA0F8A
:1003B200FB1FCF0160817181E7E0F0E0E21BF30BEC
:1003C200A1E0B0E00E944A09E62BF72BDC01ED9395
:1003D200FC93B799FECF2F5F3F4FD9CF0F5F1F4FCF
:1003E200D0CFEE81FF81AC81BD81EA0FFB1FA885D2
:1003F200B985EA0FFB1FAA85BB85EA0FFB1F2F01F8
:10040200EC85FD85E415F50511F0E0E009C0E8850D
:10041200A889B989EC93EC81AE85BF85EC93E1E0C4
:100422000E94BD0962960895AA93BA93EA93FA9339
:10043200EFB7EA93E0EEEDBDE0ECECBDDD2019F1A3
:10044200A0912705B0912805A03DE7E0BE0729F459
:10045200E0E0E0932705E0932805E0912705F0917D
:100462002805309711F49498959AA0912705B09198
:100472002805A83EE3E0BE0711F49598949AA7E2F6
:10048200B5E00E949308E991EFBFF991E991B99122
:10049200A9911895BA93AA93A881EFEFEA1BE1BF3D
:1004A2000C942B08E6E0F0E0FA93EA93A9E0B0E0BE
:1004B2003CDF7E2EE1E0E715F1F4E0E0EA93A0E014
:1004C2000E949B07AEE8B2E00E94D007A62D0E94D0
:1004D2009908A62D0E94A208E0E0EA93A1E00E94FA
:1004E2009B07A4E9B2E00E94D007A92D0E949908B7
:1004F200A92D0E94A20808952897ECE8F0E0E8836D
:10050200F983EE81EC7FEE83E37EE061EE83EF819F
:10051200E078E264EF83DE01C5D0A0E10E94E20749
:10052200BC9A8F9A8C9A8D9AE0E0E0BFE4E7E3BF31
:10053200E0E0E2BFA0E0B0E0ADDFE0E0EFBDE1E08F
:10054200EEBDE0EEEDBDE0ECECBDE4E0E7BFE0E0E7
:10055200E0937D00BA98C29ABB98C39A7894A2DFBE
:10056200861411F4A91409F003C0AFEFB0E092DFD2
:10057200E1B7E03011F4B61409F00DC0A0E0B0E02C
:1005820089DFE4E1EA93EA93A0E0B5E00E9448073C
:10059200E1E0DE2EFFCFAAEFB0E00E942C09DFCF10
:1005A200FFCF0895AA931A93E0916500EF7EE0933E
:1005B200650018E0F6DFE981E07821F0E09165005E
:1005C200E26003C0E0916500ED7FE0936500E981A0
:1005D200EE0FE983E6DFE0916500E460E0936500F9
:1005E200E0DFE0916500EB7FE0936500115011F7C9
:1005F200E0916500E061E093650018810C942B089E
:10060200AA93E0916500EE7FE0936500A881CADFBE
:100612000C941008AA93E0916500E160E0936500F4
:10062200A881C0DF0C941008AA931A93E981E69579
:10063200E695E6951E2FE4E5E19FF001DF01EA81F0
:10064200F0E0EA0FFB1FE0932905F0932A05E12F62
:1006520018810C947208AA93E981E068AE2FD0DF6A
:10066200E981EA93A981E0DFE064AE2FC9DF0C944F
:100672002B08AA93E981EA93A981EDDFE09129058C
:10068200F0912A05E55DFA4FE0810C942B08AA93BC
:100692000E94AB083197E55DFA4FA881A083BADFCB
:1006A2000C941008BA93AA930E94B609E0916400D0
:1006B200E0610E94AE08E061E0936500E0916400B1
:1006C200E4600E94AE08EB7FE0936500E091640075
:1006D200E260E0936400E0916400E160E093640012
:1006E200E0916400E8600E94AE08E77FE093650055
:1006F200AAE0B0E00E942C09E0916500E860E09376
:100702006500EC81FD81309721F1E681E3701E2FB7
:10071200EC81FD81E681E695E695E7700E2FEC818E
:10072200FD81E781EF773E2FAC81BD810E948F0969
:10073200E0930E05F0930F0512960E948F09E09345
:100742002305F0932405AC81BD8114960E948F0984
:100752000DC010E003E032E3E0E0F0E0E0930E05CC
:10076200F0930F05E0932305F0932405E09325050C
:10077200F0932605A1E244DFE12FE460AE2F40DFD3
:10078200E02FE061AE2F3CDFE32FE068AE2F38DFD1
:10079200A0E236DFA1E022D0E1E0E0930A05E0E04A
:1007A200E0930B05E1E0E0931005E0931105E0937F
:1007B2001205EFEFE0931305E1E0E0931A05EBE198
:1007C200F5E0FA93EA93EFEFEA93A8E0B0E00E9433
:1007D20012080FD0E1E00E94BD0960C0AA93E8812F
:1007E200E03011F0ECE001C0E8E0AE2F09DF0C943C
:1007F20010080E94B60930E0E0910B05E03009F0E4
:100802003FEFE0E0EA93A0E026DF08EF11E0F80115
:1008120001501040309719F0A32F39DFF8CFE0E0F4
:10082200EA93A0E049D30E94BD090C949108AA93CF
:100832001A93ED81EA93AD811CDF1E2FE981E73027
:1008420011F0E83039F4EB81EA93AA810E942D0875
:10085200EB8308C0E33021F4EB81E095EB8302C027
:10086200E03021F4EA81E0951E2302C0E23029F44F
:10087200EA81AB81EA231E2B0EC0E13029F4EA8122
:10088200AB81EA231E2707C0E43029F4EA81E09510
:10089200AB81EA2B1E23A12FFADE1881269608953A
:1008A200AA9323970E94B409A889A43548F4AF8576
:1008B200A03330F4AE85A03019F0AD85A03009F434
:1008C200D5C1EE85E887A889BB27EE85F0E0AE0F9B
:1008D200BF1FA535E0E0BE0720F0A889E4E5EA1BCA
:1008E200EE872D85AF85BB27ED85F0E0AE0FBF1FEC
:1008F200D19720F0AF85E0E3EA1BED87A985A6300A
:1009020009F05BC0EC85E13009F4B0C1E33039F4A1
:10091200E0912505F0912605309709F4A7C10885D5
:10092200ED85E695E695E6953E2FE22FE77019F400
:10093200AD852A17E9F0A02FBB27E32FF0E00E9434
:100942005309AA85BB850E94B3082695269526954C
:10095200532F5F935F5FE22FAF91EA1748F0102F9A
:10096200E12F1150E03019F00E94B808F9CFF1CF11
:10097200AE850A1711F1EE85AA85BB85F0E00E94CB
:10098200B308ED85E77009F03F5F20E02F932F5FFA
:10099200E32FAF91AE1788F41E851F931F5FE02FE0
:1009A200AF91AE1718F40E94B808F7CFEE85AE816A
:1009B200BF81F0E00E94B308E9CFEF85E7703E2FD8
:1009C200ED85E03009F452C1EA85FB85EE83FF83B1
:1009D20010E00889303009F066C0AD85A83008F40F
:1009E2005DC0E985E03011F0E33009F402C0E73080
:1009F20009F402C0E83009F402C0E93009F402C087
:100A0200EA3021F40A93A88926DE04C0E63011F404
:100A12000E94C5081F931F5FEE85AF91AE17B8F510
:100A2200A985A63069F40E94C908FA93EA930E9444
:100A3200AB083197E55DFA4FA0810E94740826C089
:100A4200E985E93011F450E00EC0EA3011F45FEFAD
:100A52000AC00E94C9080E94D2085E2FE985E730C9
:100A620011F0E83021F40E94D8085E2F06C0E3306E
:100A720011F4509502C0E03019F4A52FCBDD06C069
:100A82000E94DC08EFEFEA93AD85D1DEC3CFEF859C
:100A9200E85FEF87ED85E850ED87DFC05D8520E0F8
:100AA200E0E0ED8781C0E32FAD85AE0FA93020F4E1
:100AB2002D85E0E0ED8703C0E8E0E31B2E2F3A939B
:100AC200A22F0E9422084E2FE985E63029F50E94C6
:100AD200C5081F931F5FEE85AF91AE17E0F40E9429
:100AE200AB083197E55DFA4FE081E423AE2FE32FA7
:100AF2000E9442090E94E208E32FA42F0E944209A9
:100B0200E095E1215E2B0E94C908FA93EA93A52F92
:100B12000E947408DECF2CC0E93011F450E003C00B
:100B2200EA30A9F45FEF0E94D808AE2FE32F0E94AB
:100B32003A095E2F1F931F5FEE85AF91AE1730F417
:100B42000E94DC084A93A0E072DEF4CF11C01F932A
:100B52001F5FEE85AF91AE1758F40E94ED08AE2FDD
:100B6200E32F0E943A09EA934A93AD8560DEEFCF04
:100B7200ED85E03009F47AC0AD85A83028F4ED8522
:100B8200E21B5E2FE0E003C0532FED85E850ED87B6
:100B920010E0EF85E85FEF87E8E0E31B2E2F08897E
:100BA200EA85FB85EE83FF83E52FF0E0E059FD4FF8
:100BB2004491E985E63029F50E94C5081F931F5F1D
:100BC200EE85AF91AE17E0F40E94AB083197E55D78
:100BD200FA4FE081E423AE2FE22F0E943A090E94ED
:100BE200E208E22FA42F0E943A09E095E1215E2B50
:100BF2000E94C908FA93EA93A52F0E947408DECFD7
:100C02002CC0E93011F450E003C0EA30A9F45FEFE0
:100C12000E94D808AE2FE22F0E9442095E2F1F9336
:100C22001F5FEE85AF91AE1730F40E94DC084A9345
:100C3200A0E0FDDDF4CF11C01F931F5FEE85AF91E1
:100C4200AE1758F40E94ED08AE2FE22F0E9442091F
:100C5200EA934A93AD85EBDDEFCFE885AA85BB85A4
:100C6200F0E0EA0FFB1FEA87FB87AACE0E94BB09CE
:100C7200619608950E94FA0824F0E0E0F0E00C94F6
:100C82002B08A881B981A435E0E0BE0724F0E3E592
:100C9200F0E00C942B08E881F9810C942B080E9457
:100CA200FA0824F0E0E0F0E00C942B08A881B98166
:100CB200D09724F0EFE2F0E00C942B08E881F98160
:100CC2000C942B08BA93AA9323970E9401098F01CF
:100CD200002E012A19F4E0E0F0E05FC00E9408094A
:100CE2000F820E9408090E820E9408090886EB857D
:100CF200A885EA1718F4E0E0F0E04FC0F8010F5FB2
:100D02001F4F5491A885BB27EE27A50FBE1FEB8569
:100D1200F0E0EA17FB0718F0E0E0F0E03EC0EE81F9
:100D2200E695E695E6954E2FEE81E77009F04F5F66
:100D3200EF81E030A1F0A985BA85EC93A885EB8517
:100D4200EA1BF0E0DF01EF81F0E00E945309DF01CE
:100D5200E42FF0E00E945309E00FF11F1EC098013A
:100D6200E52FF0E00E0F1F1FA885AF5FA887A150E7
:100D7200EB85AE1760F4F9012F5F3F4FA491B0E00D
:100D8200E42FF0E00E9453090E0F1F1FEDCFF9016F
:100D9200E491A985BA85EC93F8010E94BB092C96CF
:100DA2000895E0E0E0930C05A0910D05BB270E9499
:100DB2000D09F0E0AE0FBF1FE0911105F0E0AE0F9C
:100DC200BF1F6DDFE0930D050895AA9321970E943E
:100DD2000109309709F455C0AF81AA3009F44FC018
:100DE200EF81EA93DE0117966DDFAF01309709F4C8
:100DF2004AC0E0911005AE81EA0F3E2FA0910C058A
:100E0200BB27F0E0EA0FFB1F8F010535E0E01E076C
:100E120018F0032F1127C5DFE0910C05EA93E0914A
:100E22000D05EA93E885EA930E940D09EA93E1E051
:100E3200EA935A934A93A7E033DDE0910C05AE8121
:100E4200EA0FEA93E0910D05EA93E0911005EA9327
:100E52000E940D090E941409E0910C05EA93A091E9
:100E62000D050E940D09EA0FEA933A93E0911105EC
:100E72000E941409E4E5F0E0E017F10711F491DFB4
:100E820002C000930C050E94BB0928960895BA93EC
:100E9200AA931A93EC81EA93AC810ED0A981BA810C
:100EA200ED91A983BA831E2FE03019F0A12F8DDFB7
:100EB200F5CF18810C942008AA93A981BB27DADE0A
:100EC200E0930C05A881BB27EADEE0930D050C94A4
:100ED2002B08AA93E881E07111F0DB9A01C0DB983C
:100EE200E881E07211F0DC9A01C0DC98E881E074DC
:100EF20011F0DD9A01C0DD98E881E07811F0DE9A08
:100F020001C0DE988DE08A95F1F7DA9A8DE08A9534
:100F1200F1F7DA988DE08A95F1F781C0AA93A8815A
:100F2200D8DFE881E295E883A881D3DF85E88A9556
:100F3200F1F775C0AA93E881F0E0ED5DF84FE0812A
:100F4200A981AE0FEBDFC980E881E093270782C059
:100F5200A2E00E941E09ACE0E1DFA1E00E941E09AE
:100F6200E0E0E0932707CE2E0895AA93A881AA3045
:100F720021F0E0912807CE1660F0E0E0EA93A0911C
:100F82002707AF5FA0932707D5DFA881AA3009F40E
:100F920046C0C394D89AA881C1DFD89840C0BA93FA
:100FA200AA931A93E981FA813196E983FA833197F8
:100FB200E4911E2FE03019F0A12FD7DFF3CF188173
:100FC20090C0AA93D39AD49AD59AD69AD29AD09A02
:100FD200D19ADA98D898D998E881E0932807E0580E
:100FE200E0932507E881E054E0932607A4E1B0E00E
:100FF2000E942C090E9424090E9424090E942409AB
:10100200A0E267DF88EC90E00197F1F7A8E286DFC3
:10101200A4E084DFA5E882DFA6E080DF99DF2196E5
:101022000895BA93AA93B981A881109631F0FC81F0
:10103200EB816A8161931197E9F7EB81FC81259637
:101042000895AA93E881F0E0E059FD4FA491E98167
:101052000E943A0922960895AA931A93E981E730E9
:1010620011F0EA3019F410910A0509C0E93019F4B7
:1010720010910B0504C0E830A1F410911A05E0911B
:101082000B05E03049F0103019F0EFEF188129C05C
:10109200EA81E095188125C0103019F4E0E018814A
:1010A20020C0EA8118811DC0BA93AA93EA81E13077
:1010B20021F4E881F981E49114C0E23029F4A88195
:1010C200B9810E9493090DC0E33041F4A881B9812E
:1010D200E0912305F0912405099503C0A881B98107
:1010E200EC9123960895AA93EB81E03029F4E881EC
:1010F200A981BA81EC9314C0E23031F4E881A9816C
:10110200BA810E949F090CC0E33051F4E981FA814F
:10111200FA93EA93AA81E0912505F09126050995B3
:1011220024960895ED91FD913196FE93EE930895E4
:10113200B0E0EAE0F0E00E946E09E05DAE2F0C94B0
:10114200B607BB27EAE0F0E00E947309E05DAE2F2C
:101152000C94B607A9E2B5E0E5CFE0936400E09114
:1011620065000895EA0FFB1FEE83FF830895EC8567
:10117200EA93EF81F8853196EF83F8873197FA93F6
:10118200EA93A0E00C9474080A93A8890C941503BE
:10119200EC85EA93EF81F8853196EF83F8873197F2
:1011A200089566277727DF01CB010C9455085A93DF
:1011B200AA850C942D080A930395E889EA935A9319
:1011C20008955E2FEC85EA93AF81B8858827992729
:1011D2000E9455081E2E08950A930395E889EA9302
:1011E200EE85EA93E985FA853196E987FA873197A0
:1011F200D8CFBA93AA93A881B9810E94B009089561
:101202000E94B409E0910E05F0910F050895F801CE
:101212000F5F1F4F04900895E0910E05F0910F05A6
:101222003196E4910895EA93E0E0EA93E0E0F0E099
:10123200FA93EA93A9E00C9451040E948F07A3E069
:10124200B0E00C942C09A0E30E946A0788EC90E0BD
:101252000197F1F70895109639F080ED97E0019724
:10126200F1F7A8951197C9F70895F195E195F04026
:101272000895EE230E2EEA2F19F0EE0F0A94E9F7E5
:101282000895EE230E2EEA2F19F0E6950A94E9F757
:101292000895EE230E2EFD0121F0EE0FFF1F0A949A
:1012A200E1F70895FA9FF02DEB9FF00DEA9FE02DF4
:1012B200F10D08950024112490E1AA0FBB1F001C18
:1012C200111C0E1A1F0A18F40E0E1F1E01C0A16077
:1012D2009A9599F7FD01D001089512D0EBDF0EF433
:1012E200C4DF0895E894B7FF04C0A095B0951196A5
:1012F2006894F7FDBADFDEDFFD010EF4B6DF089574
:10130200E894F7FF02C0B1DF6894B7FF06C0A0956A
:10131200B095119600F8039400FA0895ED91FC91AE
:1013220011970895E199FECFFF93FFB7F894AEBBF2
:10133200BFBBE09AEDB3FFBFFF910895E19B02C0EE
:10134200A895FCCF9FB7F894AEBBBFBBE09A8DB314
:10135200E81719F0EDBBE29AE19A9FBF08950024C5
:101362000A160B0608955A934A933A932A931A93AC
:101372000A9308955D814C813B812A8119810881FC
:101382000895AC0FBD1F05900D928A95E1F708955F
:00000001FF
