:040000000C945A0101
:100004000C9400000C9400000C9400000C9400006C
:100014000C9400000C9400000C9400000C9400005C
:100024000C9400000C9400000C9400000C9400004C
:100034000C9400000C941B020C9400000C9400001F
:100044000C9400000C9400000C9400000C9400002C
:100054000C9400000C9400000C9400000C9400001C
:100064000C9400000C9400000C9400000C9400000C
:100074000C9400000C9400000C9400000C940000FC
:100084000C9400000C9400000507206000000000A0
:100094000000005F00000007000700147F147F14B5
:1000A400242A7F2A122313086462364955225000F9
:1000B40005030000001C2241000041221C00082A04
:1000C4001C2A0808083E08080050300000080808E8
:1000D4000808003030000020100804023E51494551
:1000E4003E00427F400042615149462141454B3127
:1000F4001814127F1027454545393C4A49493001B7
:10010400710905033649494936064949291E00360D
:10011400360000005636000000081422411414145E
:10012400141441221408000201510906324979418C
:100134003E7E1111117E7F494949363E414141229B
:100144007F4141221C7F494949417F090901013E00
:10015400414151327F0808087F00417F410020401F
:10016400413F017F081422417F404040407F020408
:10017400027F7F0408107F3E4141413E7F09090907
:10018400063E4151215E7F091929464649494931B4
:1001940001017F01013F4040403F1F2040201F7F5D
:1001A4002018207F63140814630304780403615146
:1001B40049454300007F4141020408102041417F2A
:1001C40000000402010204404040404000010204D7
:1001D4000020545454787F484444383844444420DC
:1001E400384444487F3854545418087E090102089E
:1001F4001454543C7F0804047800447D400020409B
:10020400443D00007F10284400417F40007C0418D6
:1002140004787C0804047838444444387C14141466
:1002240008081414187C7C08040408485454542006
:10023400043F4440203C4040207C1C2040201C3C87
:100244004030403C44281028440C5050503C4464F6
:10025400544C44000836410000007F000000413641
:10026400080002010204027F4141417F00010307AB
:100274000F1F3F7FFF0000000A0000010000000084
:100284000100020003000400050006000700080046
:1002940001002D4E414E00494E4600000800040066
:1002A4007A0211001D05820201003A07940200003F
:1002B400F894EE27ECBBF1E0F5BFE5BFE0936C00EA
:1002C4008DE0A2E0BB27ED938A95E9F780E090E109
:1002D400A0E0B1E0ED930197E9F7E0EAF2E085915F
:1002E4009591009761F0A591B59105901590BF0186
:1002F400F00105900D920197E1F7FB01F0CF8BBF60
:10030400EFEFEDBFE0E1EEBFC0E0D5E00C94D70223
:10031400EAEEE0936100BC9AA79ABD9AE3E8E6B9D5
:1003240008950E940E0930E03330A0F5303019F4FE
:10033400EDEFE0936200313019F4E7EFE0936200EF
:10034400323019F4EFEDE093620000E0033000F581
:10035400003041F4E0B1E4701E2F143019F00E9413
:100364001D081AC0013041F4E0B1E0711E2F1031B4
:1003740019F00E941D0810C0023041F4E0B1E17090
:100384001E2F113019F00E941D0806C00F5FDECF2A
:100394003F5FCACFEFEFFFEF0E941509249608953F
:1003A400BA93AA932897ECE8F0E0E883F983EE8106
:1003B400EC7FEE83EA85E770EE0FEE0F0E2EEE81F2
:1003C400E37EE029EE83E885EF770E2EEF81E07877
:1003D400E029EF83DE0172D10C94D406BA93AA9378
:1003E400A881EFEFEA1BE1BF0C94B507C59A089505
:1003F400A8E7B0E0F3DF0895A0E0B0E0EFDFC59830
:100404000895E0E0E0BFE4E7E3BFE0E0E2BFA0E09E
:10041400B0E0E4DFE0E0EFBDE1E0EEBDECEFEDBD28
:10042400E0EEECBDE4E0E7BFE0E0E0937D0078942B
:1004340008950A921A92FA926A937A938A939A93F3
:10044400AA93BA93EA93FA93EFB7EA931A930A93A7
:10045400ECEFEDBDE0EEECBDF20131962F01E8ECDE
:10046400F0E04E165F0614F0442455244614570455
:1004740014F4AF9A01C0AF98E7ECF0E0E415F50589
:1004840059F44FDF8F01EFEFFFEFE017F10721F091
:100494000E942C08E1E0EC9309911991E991EFBFD6
:1004A400F991E991B991A991999189917991699178
:1004B400F9901990099018951A930A9300E010E0A6
:1004C4000930E0E01E0744F40E942C08AC91A130EE
:1004D40019F00F5F1F4FF4CFE8E0F0E0E017F107E9
:1004E40009F460C09920D1F085010930E0E01E07CD
:1004F400ACF4E8E0F0E0E017F10729F40E942C08DE
:10050400AC91A03009F002C0992405C00E942C08C7
:10051400AC91A13019F00F5F1F4FE7CF9920C1F4C0
:1005240085011123AAF000240016010629F40E9473
:100534002C08AC91A03009F003C0E1E09E2E32C03B
:100544000E942C08AC91A13019F001501040E9CF61
:100554000E943108992011F04BDF01C047DFA7E367
:10056400B5E0AA0DBB1DEC91E03099F4992029F077
:10057400F50131965F01319704C0F50131975F01B0
:10058400319643D10E943C08A8EEB3E00E94C5080E
:10059400E6CFA7E3B5E0AA0DBB1DE0E0EC932CDFAA
:1005A4000E943108099119910895E4E0F0E0FA936A
:1005B400EA93A2E4B0E0F4DEABDE23DF0E943C0861
:1005C4007BDFFECFFFCF0895AA931A93E0916500D5
:1005D400EF7EE093650018E0F6DFE981E07821F032
:1005E400E0916500E26003C0E0916500ED7FE09377
:1005F4006500E981EE0FE983E6DFE0916500E460E0
:10060400E0936500E0DFE0916500EB7FE093650037
:10061400115011F7E0916500E061E09365001881E5
:100624000C94B507AA93E0916500EE7FE093650012
:10063400A881CADFE8C0AA93E0916500E160E09375
:100644006500A881C1DFDFC0AA931A93E981E6950A
:10065400E695E6951E2FE4E5E19FF001DF01EA81CE
:10066400F0E0EA0FFB1FE0934005F0934105E12F12
:1006740018810C94FC07AA93E981E068AE2FD2DFBD
:10068400E981EA93A981E0DFE064AE2FCBDF0C942B
:10069400B507AA93E981EA93A981EDDFE0914005CA
:1006A400F0914105EE5BFA4FE0810C94B507AA93F3
:1006B4000E944A08A881A083BEDFA5C0BA93AA936A
:1006C4000E940E09E0916400E0610E945508E06117
:1006D400E0936500E0916400E4600E945508EB7FBC
:1006E400E0936500E0916400E260E0936400E091CF
:1006F4006400E160E0936400E0916400E8600E94BB
:100704005508E77FE0936500AAE0B0E00E94C508C1
:10071400E0916500E860E0936500EC81FD8130972D
:1007240021F1E681E3701E2FEC81FD81E681E695DF
:10073400E695E7700E2FEC81FD81E781EF773E2F80
:10074400AC81BD810E94E708E0930405F0930505A0
:1007540012960E94E708E0931905F0931A05AC81FC
:10076400BD8114960E94E7080DC010E003E032E357
:10077400E0E0F0E0E0930405F0930505E09319054B
:10078400F0931A05E0931B05F0931C05A1E24ADFE0
:10079400E12FE460AE2F46DFE02FE061AE2F42DFB1
:1007A400E32FE068AE2F3EDFA0E23CDFA1E022D0E1
:1007B400E1E0E0930005E0E0E0930105E1E0E0938F
:1007C4000605E0930705E0930805EFEFE0930905BC
:1007D400E1E0E0931005E1E1F5E0FA93EA93EFEF4D
:1007E400EA93A8E0B0E00E949C070FD0E1E00E94E9
:1007F400150960C0AA93E881E03011F0ECE001C073
:10080400E8E0AE2F0FDF219608950E940E0930E034
:10081400E0910105E03009F03FEFE0E0EA93A0E069
:100824002ADF08EF11E0F80101501040309719F069
:10083400A32F3DDFF8CFE0E0EA93A0E040D30E948D
:1008440015090C941B08AA931A93ED81EA93AD81C0
:1008540020DF1E2FE981E73011F0E83039F4EB8115
:10086400EA93AA810E94B707EB8308C0E33021F41E
:10087400EB81E095EB8302C0E03021F4EA81E0955E
:100884001E2302C0E23029F4EA81AB81EA231E2B45
:100894000EC0E13029F4EA81AB81EA231E2707C0A8
:1008A400E43029F4EA81E095AB81EA2B1E23A12FE1
:1008B400FEDE188126960895AA9323970E940C09B8
:1008C400A889A43548F4AF85A03330F4AE85A030B0
:1008D40019F0AD85A03009F4CCC1EE85E887A8896C
:1008E400BB27EE85F0E0AE0FBF1FA535E0E0BE07E5
:1008F40020F0A889E4E5EA1BEE872D85AF85BB27A8
:10090400ED85F0E0AE0FBF1FD19720F0AF85E0E397
:10091400EA1BED87A985A63009F05BC0EC85E130C0
:1009240009F4A7C1E33039F4E0911B05F0911C05EB
:10093400309709F49EC10885ED85E695E695E69520
:100944003E2FE22FE77019F4AD852A17E9F0A02FA6
:10095400BB27E32FF0E00E94DF08AA85BB850E9435
:100964005A08269526952695532F5F935F5FE22FAD
:10097400AF91EA1748F0102FE12F1150E03019F031
:100984000E945F08F9CFF1CFAE850A1711F1EE8509
:10099400AA85BB85F0E00E945A08ED85E77009F04E
:1009A4003F5F20E02F932F5FE32FAF91AE1788F4C2
:1009B4001E851F931F5FE02FAF91AE1718F40E949E
:1009C4005F08F7CFEE85AE81BF81F0E00E945A0840
:1009D400E9CFEF85E7703E2FED85E03009F449C19A
:1009E400EA85FB85EE83FF8310E00889303009F047
:1009F40063C0AD85A83008F45AC0E985E03011F031
:100A0400E33009F402C0E73009F402C0E83009F425
:100A140002C0E93009F402C0EA3021F40A93A8893B
:100A24002ADE04C0E63011F40E946C081F931F5F95
:100A3400EE85AF91AE17A0F5A985A63051F40E94BA
:100A44007008FA93EA930E944A08A0810E94FE0764
:100A540026C0E985E93011F450E00EC0EA3011F403
:100A64005FEF0AC00E9470080E9479085E2FE98532
:100A7400E73011F0E83021F40E947F085E2F06C0B1
:100A8400E33011F4509502C0E03019F4A52FD3DD02
:100A940006C00E948308EFEFEA93AD85D4DEC6CF8B
:100AA400EF85E85FEF87ED85E850ED87D9C05D8578
:100AB40020E0E0E0ED877EC0E32FAD85AE0FA930E6
:100AC40020F42D85E0E0ED8703C0E8E0E31B2E2F42
:100AD4003A93A22F0E94AC074E2FE985E63011F518
:100AE4000E946C081F931F5FEE85AF91AE17C8F488
:100AF4000E944A08E081E423AE2FE32F0E94D70826
:100B04000E948908E32FA42F0E94D708E095E121D1
:100B14005E2B0E947008FA93EA93A52F0E94FE07A9
:100B2400E1CF2CC0E93011F450E003C0EA30A9F45D
:100B34005FEF0E947F08AE2FE32F0E94CF085E2F45
:100B44001F931F5FEE85AF91AE1730F40E948308A8
:100B54004A93A0E078DEF4CF11C01F931F5FEE85A7
:100B6400AF91AE1758F40E949408AE2FE32F0E9461
:100B7400CF08EA934A93AD8566DEEFCFED85E0308A
:100B840009F477C0AD85A83028F4ED85E21B5E2F0B
:100B9400E0E003C0532FED85E850ED8710E0EF85CA
:100BA400E85FEF87E8E0E31B2E2F0889EA85FB85E1
:100BB400EE83FF83E52FF0E0E059FD4F4491E98592
:100BC400E63011F50E946C081F931F5FEE85AF910C
:100BD400AE17C8F40E944A08E081E423AE2FE22F46
:100BE4000E94CF080E948908E22FA42F0E94CF08F8
:100BF400E095E1215E2B0E947008FA93EA93A52FF9
:100C04000E94FE07E1CF2CC0E93011F450E003C08C
:100C1400EA30A9F45FEF0E947F08AE2FE22F0E9412
:100C2400D7085E2F1F931F5FEE85AF91AE1730F488
:100C34000E9483084A93A0E006DEF4CF11C01F93FC
:100C44001F5FEE85AF91AE1758F40E949408AE2F43
:100C5400E22F0E94D708EA934A93AD85F4DDEFCFE3
:100C6400E885AA85BB85F0E0EA0FFB1FEA87FB87CE
:100C7400B3CE0E941309619608950E94A10824F03E
:100C8400E0E0F0E00C94B507A881B981A435E0E078
:100C9400BE0724F0E3E5F0E00C94B507E881F981A0
:100CA4000C94B5070E94A10824F0E0E0F0E00C9455
:100CB400B507A881B981D09724F0EFE2F0E00C9455
:100CC400B507E881F9810C94B507BA93AA932397E1
:100CD4000E94A8088F01002E012A19F4E0E0F0E038
:100CE4005FC00E94AF080F820E94AF080E820E946C
:100CF400AF080886EB85A885EA1718F4E0E0F0E071
:100D04004FC0F8010F5F1F4F5491A885BB27EE27F2
:100D1400A50FBE1FEB85F0E0EA17FB0718F0E0E033
:100D2400F0E03EC0EE81E695E695E6954E2FEE8125
:100D3400E77009F04F5FEF81E030A1F0A985BA8533
:100D4400EC93A885EB85EA1BF0E0DF01EF81F0E08E
:100D54000E94DF08DF01E42FF0E00E94DF08E00FCB
:100D6400F11F1EC09801E52FF0E00E0F1F1FA8858C
:100D7400AF5FA887A150EB85AE1760F4F9012F5F30
:100D84003F4FA491B0E0E42FF0E00E94DF080E0F83
:100D94001F1FEDCFF901E491A985BA85EC93F80101
:100DA4000E9413092C960895E0E0E0930205A091B7
:100DB4000305BB270E94B408F0E0AE0FBF1FE0910B
:100DC4000705F0E0AE0FBF1F6DDFE0930305089544
:100DD400AA9321970E94A808309709F455C0AF81BF
:100DE400AA3009F44FC0EF81EA93DE0117966DDF54
:100DF400AF01309709F44AC0E0910605AE81EA0FCD
:100E04003E2FA0910205BB27F0E0EA0FFB1F8F01E4
:100E14000535E0E01E0718F0032F1127C5DFE09128
:100E24000205EA93E0910305EA93E885EA930E94B8
:100E3400B408EA93E1E0EA935A934A93A7E03CDDCD
:100E4400E0910205AE81EA0FEA93E0910305EA938B
:100E5400E0910605EA930E94B4080E94BB08E09161
:100E64000205EA93A09103050E94B408EA0FEA93ED
:100E74003A93E09107050E94BB08E4E5F0E0E0172F
:100E8400F10711F491DF02C0009302050E941309D7
:100E940028960895BA93AA931A93EC81EA93AC81A5
:100EA4000ED0A981BA81ED91A983BA831E2FE030B7
:100EB40019F0A12F8DDFF5CF18810C94AA07AA93FE
:100EC400A981BB27DADEE0930205A881BB27EADE0D
:100ED400E09303050C94B507BA93AA93A991B99129
:100EE400E991F99130962AF4E095F09531966DE206
:100EF4006D93E89480E197E20DD088EE93E00AD0F8
:100F040084E6992707D08AE005D06E2F10D0662793
:100F14006C9308956627E817F90720F06395E81B9A
:100F2400F90BC9F7662311F416F008956894605D0F
:100F34006D930895BA93AA93B981A881109631F05C
:100F4400FC81EB816A8161931197E9F7EB81FC8164
:100F540025960895AA93E881F0E0E059FD4FA49105
:100F6400E9810E94CF0822960895AA931A93E981F1
:100F7400E73011F0EA3019F41091000509C0E930A6
:100F840019F41091010504C0E830A1F41091100582
:100F9400E0910105E03049F0103019F0EFEF1881CD
:100FA40029C0EA81E095188125C0103019F4E0E0E9
:100FB400188120C0EA8118811DC0BA93AA93EA81DE
:100FC400E13021F4E881F981E49114C0E23029F49C
:100FD400A881B9810E94EB080DC0E33041F4A881D7
:100FE400B981E0911905F0911A05099503C0A8810A
:100FF400B981EC9123960895AA93EB81E03029F40A
:10100400E881A981BA81EC9314C0E23031F4E8811B
:10101400A981BA810E94F7080CC0E33051F4E98138
:10102400FA81FA93EA93AA81E0911B05F0911C05D9
:10103400099524960895A6E00A9FF001E35EFA4F0D
:10104400DF01E32FF0E0EE0FFF1FAE0FBF1F0E9482
:10105400E7080895A7E3B5E0A00FB11F0895EFE0F6
:10106400F0E03F01A0EDB7E00E94C508EAE0F0E03F
:101074003F010895BA92AA92AFE2B5E00E946E07CA
:10108400EEE1EA93E4E1EA93AFE2B5E00C944C07B5
:10109400A0E4B5E0ED91FD913196FE93EE93319786
:1010A400EE5BFA4F0895E0936400E09165000895C3
:1010B400EA0FFB1FEE83FF830895EC85EA93EF812B
:1010C400F8853196EF83F8873197FA93EA93A0E095
:1010D4000C94FE070A93A8890C942603EC85EA93E2
:1010E400EF81F8853196EF83F88731970895662765
:1010F4007727DF01CB010C94DF075A93AA850C9460
:10110400B7070A930395E889EA935A9308955E2FE3
:10111400EC85EA93AF81B885882799270E94DF0779
:101124001E2E08950A930395E889EA93EE85EA93BF
:10113400E985FA853196E987FA873197D8CFBA934A
:10114400AA93A881B9810E94080908950E940C09F4
:10115400E0910405F09105050895F8010F5F1F4F14
:1011640004900895E0910405F09105053196E49109
:101174000895EA93E0E0EA93E0E0F0E0FA93EA937A
:10118400A9E00C945E04109639F080ED97E0019785
:10119400F1F7A8951197C9F70895EE230E2EEA2FBB
:1011A40019F0EE0F0A94E9F70895EE230E2EEA2FB4
:1011B40019F0E6950A94E9F70895FA9FF02DEB9F4C
:1011C400F00DEA9FE02DF10D0895ED91FC9111973A
:1011D4000895E199FECFFF93FFB7F894AEBBBFBB70
:1011E400E09AEDB3FFBFFF910895E19B02C0A8957B
:1011F400FCCF9FB7F894AEBBBFBBE09A8DB3E817A2
:1012040019F0EDBBE29AE19A9FBF089500240A16F3
:101214000B0608955A934A933A932A931A930A937E
:1012240008955D814C813B812A811981088108954B
:00000001FF
